:020000040800F2
:10000000FCFF002019150000FD140000FD14000085
:10001000FD140000FD140000FD140000FD1400009C
:10002000FD140000FD140000FD140000FD1400008C
:10003000FD140000FD140000FD140000FD1400007C
:10004000FD140000FD140000FD140000FD1400006C
:10005000FD140000FD140000FD140000FD1400005C
:10006000FD140000FD140000FD140000FD1400004C
:10007000FD140000FD140000FD140000FD1400003C
:10008000FD140000FD140000FD140000FD1400002C
:10009000FD140000FD140000FD140000FD1400001C
:1000A000FD140000FD140000FD140000FD1400000C
:1000B000FD140000FD140000FD140000FD140000FC
:1000C000FD140000FD140000FD140000FD140000EC
:1000D000FD140000FD140000FD140000FD140000DC
:1000E000FD140000FD140000FD140000FD140000CC
:1000F000FD140000FD140000FD140000FD140000BC
:10010000FD140000FD140000FD140000FD140000AB
:10011000FD140000FD140000FD140000FD1400009B
:10012000FD140000FD140000FD140000FD1400008B
:10013000FD140000FD140000FD140000FD1400007B
:10014000FD140000FD140000FD140000FD1400006B
:1001500001480068704700BF3400002083B0CDF82C
:1001600000E000F0FF031A09104603F00F021346E7
:1001700014E0194A02921FE0184A02921CE0184A41
:10018000029219E0174A029216E0174A029213E00F
:10019000164A029210E0164A02920DE00028E8D0BA
:1001A0000128E9D00228EAD00328EBD00428ECD0BB
:1001B0000528EDD00628EED0012212B29A40ADF803
:1001C000042002980A46BDF8041000F067FADDF832
:1001D00000E003B0704700BF00080140000C014080
:1001E000001001400014014000180140001C0140B3
:1001F0000020014081B0194900EA010108460022AF
:100200000EE0042022E0082020E010201EE0202044
:100210001CE040201AE0802018E040F2001015E0B9
:100220000F498842EDD00F498842ECD00E498842F0
:10023000EBD00E498842EAD00D498842E9D00D49F9
:100240008842E8D00C498842E7D010460B4909683B
:1002500041EA000209490A6001B0704700FCFFFF53
:1002600000080140000C0140001001400014014052
:1002700000180140001C01400020014018100240FD
:1002800082B0CDF800E0034619460191FFF760FF08
:1002900040F2E83100FB01F201990A601F49097838
:1002A000C1F30311C8B21E4909180878C0B21A1D5B
:1002B0001968C140116019490988C1F3022188B247
:1002C000174909180878C0B203F20802191D096815
:1002D000C140116011490988C1F3C22188B2104997
:1002E00009180878C0B203F20C02191D0968C14050
:1002F00011600A490988C1F3813188B20949091896
:100300000978C8B203F2100203F20C010968B1FBCC
:10031000F0F11160DDF800E002B070470410024017
:100320003A1800006C12000081B0CDF800E0012204
:1003300052B23E490A6000F268010B686FF000613A
:1003400003EA0102144603F00061C90E0B4602F0F5
:100350000041B1F1004F02D135490A6801E0354949
:100360000A6804F47021090C0E464FF6FF7104EA86
:1003700001010D4604F44011B1F5401F0DD16FF09D
:10038000706102EA01010E462A490A686FF0706145
:100390000A4028490A60324616E004F48011B1F59B
:1003A000801F09D14FF00301B140C94302EA0101A6
:1003B00041F070610A4607E0610D090105FA01F19B
:1003C000C9430A4042F070622BB1610D090105FA80
:1003D00001F10A43FFE704F00041B1F1004F02D1FF
:1003E00013490A6001E013490A6040F2000A81469D
:1003F0004FEA8A0109EB01010968B1F1FF3F10D012
:1004000009F134014FEA8A03C91809680A4609EB61
:100410000301096808461146FFF7A0FE0AF1010A28
:10042000E6E7DDF800E001B0704700BF000342429C
:100430001C0001400400014081B0ADF800100146ED
:10044000BDF800000B68C3F3C01202B9FAE70A1D39
:10045000106001B07047FFFF89B0CDF800E083461F
:1004600098B28C46BDF824100A9E04ACADF8041076
:10047000ADF808002046FFF703FFBDF80800BDF8FF
:100480000410644CA34512D101256DB2624C256065
:10049000624D634C2560634D634C2560634D644C35
:1004A0002560644D644C2560079C039456E0634CC2
:1004B000A34512D101256DB2614C2560614D584CA8
:1004C0002560614D584C2560604D594C2560604D4C
:1004D000594C2560069C039440E05E4CA34512D124
:1004E00001256DB25C4C25605C4D4D4C25605C4D2A
:1004F0004D4C25605B4D4E4C25605B4D4E4C256050
:10050000069C03942AE0594CA34512D101256DB2F3
:10051000574C2560574D424C2560574D424C256045
:10052000564D434C2560564D434C2560069C039424
:1005300014E0544CA34511D101256DB2524C2560F5
:10054000524D374C2560524D374C2560514D384C3B
:100550002560514D384C2560069C0394ADF804107D
:10056000ADF808003046FFF7DFFEBDF80800BDF823
:1005700004100BF1100500242C600BF110052C6801
:100580000C432C600BF10C0500242C6018B140F4D6
:10059000806080B2FFE70BF10C052C6804432C60EF
:1005A0000BF10C060125346865F34D3434600BF112
:1005B0000C060125346865F3C30434600BF10C06A6
:1005C0000125346865F3820434600BF114050024BE
:1005D0002C60039D192465434FEA8C04B5FBF4F7A6
:1005E0006424B7FBF4F42601350964246C433C1BF6
:1005F000240104F232056424B5FBF4F404F00F0482
:1006000046EA04040BF10805A4B22C60DDF800E012
:1006100009B0704700380140380342422509000004
:1006200038000020FFFFFFFF3C000020FFFFFFFF1E
:1006300040000020FFFFFFFF440000200044004076
:10064000C4034242AD090000FFFFFFFFFFFFFFFFB1
:10065000FFFFFFFF00480040C80342425D09000061
:10066000FFFFFFFFFFFFFFFFFFFFFFFF004C00400A
:10067000CC03424291080000FFFFFFFFFFFFFFFF96
:10068000FFFFFFFF00500040D00342427909000005
:10069000FFFFFFFFFFFFFFFFFFFFFFFF81B0CDF870
:1006A00000E08CB21546774B00EA03031E4618465D
:1006B000FFF7A0FDB4F1FF0F0CD1734B9D4203D1A6
:1006C0004FF033333360D9E0422D03D14FF0443340
:1006D0003360D3E04FF6FF739C4214D16A4B9D42C6
:1006E00007D14FF033333360341D4FF03333236081
:1006F000C4E0422D07D14FF044333360341D4FF036
:1007000044332360BAE00021002005F001030BB15F
:1007100000211DE005F0020333B105F4C0730BB1F5
:10072000082100E0042113E005F0040333B105F0D3
:1007300020030BB1042100E0002109E005F00803CB
:1007400033B105F020030BB10C2100E00821FFE7D5
:100750004E4B05EA03030BB1032009E005F40073D7
:100760000BB1022004E005F480630BB10120FFE728
:1007700005F00C030BB10143FFE704F0FF039BB24C
:10078000002B3BD0376800201FFA84F832462E46F3
:1007900008282CD24FF0010303FA00F408EA0403FE
:1007A000A34222D185004FF00F03AB40DB4307EAA1
:1007B000030401FA05F344EA03031D4606F48173BA
:1007C000B3F5817F05D102F214044FF00103834099
:1007D000236006F08203822B05D102F210044FF051
:1007E0000103834023602F46FFE7401CD0E71760DA
:1007F0001FFA88F00F463146164602E00F4629469A
:10080000A0B2B0F1FF0F39D9331DD3F80080002218
:10081000082A30D202F208044FF0010303FA04F46C
:1008200000EA0403A34224D195004FF00F03AB402C
:10083000DB4308EA030807FA05F348EA030801F472
:100840008173B3F5817F07D106F2140502F2080423
:100850004FF00103A3402B6001F08203822B07D1EC
:1008600006F2100502F208044FF00103A3402B60CA
:10087000FFE7521CCCE7331DC3F80080DDF800E031
:1008800001B0704700FCFFFF1400080000080800DA
:1008900081B0CDF800E081B20348FFF7CDFDDDF86F
:1008A00000E001B0704700BF004C004081B0CDF8BF
:1008B00000E0019D2C4610B408B493B28AB2014600
:1008C0000348FFF7C9FD02B0DDF800E001B0704752
:1008D0000048004081B0CDF800E0019D2C4610B4E6
:1008E00008B493B28AB201460348FFF7B5FD02B0DF
:1008F000DDF800E001B070470038014081B0CDF86C
:1009000000E0019D2C4610B408B493B28AB20146AF
:100910000348FFF7A1FD02B0DDF800E001B0704729
:100920000044004081B0CDF800E081B20348FFF7F9
:1009300083FDDDF800E001B0704700BF00380140E2
:1009400081B0CDF800E0044A89B2FFF7A7FEDDF8D8
:1009500000E001B0704700BF1400080081B0CDF87E
:1009600000E081B20348FFF767FDDDF800E001B069
:10097000704700BF0048004081B0CDF800E081B270
:100980000348FFF759FDDDF800E001B0704700BFF4
:100990000050004081B0CDF800E04FF0420289B233
:1009A000FFF77CFEDDF800E001B0704781B0CDF8C4
:1009B00000E081B20348FFF73FFDDDF800E001B041
:1009C000704700BF0044004001480068704700BF06
:1009D0002481224201480068704700BF0001214283
:1009E00001480068704700BF288122420148006822
:1009F000704700BF1C81214201480068704700BF5A
:100A00001401214201480068704700BF2081224242
:100A100001480068704700BF188121420148006802
:100A2000704700BF3001224201480068704700BF94
:100A30001001214201490860704700BF9C8121429A
:100A400001480068704700BF080122420149086060
:100A5000704700BF9881214201480068704700BF7D
:100A60002C01224201480068704700BF2801224241
:100A700001480068704700BF348122420148006885
:100A8000704700BF0C01224281B0CDF800E0017830
:100A9000CCB2A0B2034C2468A0470020DDF800E0EF
:100AA00001B070471C00002001480068704700BF7B
:100AB0001C81214201480068704700BF1881214213
:100AC00081B0CDF800E0002000F0C4FB00F0D0FBC6
:100AD000012000F0BFFB00F0CBFBDDF800E001B02F
:100AE0007047FFFF81B0CDF800E0034C2468A047B9
:100AF000DDF800E001B070472000002081B0CDF8A3
:100B000000E0034C2468A047DDF800E001B0704726
:100B10003000002081B0CDF800E0034C2468A047ED
:100B2000DDF800E001B070472800002001480068AF
:100B3000704700BF1481224201480068704700BF1F
:100B40002C01224201480068704700BF2801224260
:100B500001480068704700BF3881224201480068A0
:100B6000704700BF3001224201480068704700BF53
:100B70001881224201480068704700BF308122423C
:100B800001480068704700BF308122420149086077
:100B9000704700BF9481224201490860704700BF3E
:100BA000A801224201490860704700BFB481224277
:100BB00001490860704700BF88012242014908606E
:100BC000704700BFAC01224201490860704700BF76
:100BD000A881224201490860704700BF800121427C
:100BE00001490860704700BFB00122420149086016
:100BF000704700BF9001214281B0CDF800E0094963
:100C000002B440F2000340F2000240F20001FFF79C
:100C100061FE01B0044A05490A600020DDF800E0E9
:100C200001B0704754170000250900001C00002087
:100C300081B0CDF800E0094902B440F2000340F26F
:100C4000000240F20001FFF759FE01B0044A0549D5
:100C50000A600020DDF800E001B070477C1600005B
:100C6000AD0900001C00002081B0CDF800E009496A
:100C700002B440F2000340F2000240F20001FFF72C
:100C800015FE01B0044A05490A600020DDF800E0C5
:100C900001B07047E81600005D0900001C0000204C
:100CA00081B0CDF800E0A9E0012905D140F2200192
:100CB0006548FFF76FFE04E040F220016248FFF74D
:100CC0003FFEBBE0012905D140F208015F48FFF774
:100CD00061FE04E040F208015C48FFF731FEADE040
:100CE000012905D144F200015948FFF753FE04E001
:100CF00044F200015648FFF723FE9FE0012905D189
:100D000040F200415148FFF745FE04E040F2004147
:100D10004E48FFF715FE91E0012905D140F600018C
:100D20004A48FFF737FE04E040F600014748FFF766
:100D300007FE83E0012905D141F200014348FFF796
:100D400029FE04E041F200014048FFF7F9FD75E09B
:100D5000012905D141F200013D48FFF71BFE04E0E7
:100D600041F200013A48FFF7EBFD67E0012905D1A8
:100D700040F600013648FFF70DFE04E040F60001A2
:100D80003348FFF7DDFD59E0012905D140F240016C
:100D90002F48FFF7FFFD04E040F240012C48FFF729
:100DA000CFFD4BE0012905D140F220012848FFF793
:100DB000F1FD04E040F220012548FFF7C1FD3DE0D0
:100DC000012905D140F240012248FFF7E3FD04E08C
:100DD00040F240011F48FFF7B3FD2FE0012905D184
:100DE00040F280011B48FFF7D5FD04E040F280018E
:100DF0001848FFF7A5FD21E0012020E000283FF47E
:100E000053AF01283FF45EAF02283FF469AF0328D7
:100E10003FF474AF04283FF47FAF05283FF48AAF56
:100E200006283FF495AF0728A0D00828ACD00928A1
:100E3000B8D00A28C4D00B28D0D0DDE70020DDF8D8
:100E400000E001B0704700BF000801400010014001
:100E500000140140000C014000F230011C310A680E
:100E600009490A60026809490A6000F208010A6833
:100E700007490A60011D0A6806490A6000F2180164
:100E80000A6805490A6070472400002028000020F5
:100E90002C000020300000202000002081B0CDF880
:100EA00000E0A9E0012905D140F210016548FFF7F3
:100EB00071FD04E040F210016248FFF741FDBBE024
:100EC000012905D140F204015F48FFF763FD04E00A
:100ED00040F204015C48FFF733FDADE0012905D184
:100EE00042F200015948FFF755FD04E042F20001CB
:100EF0005648FFF725FD9FE0012905D140F200414A
:100F00005148FFF747FD04E040F200414E48FFF72B
:100F100017FD91E0012905D140F600014A48FFF78D
:100F200039FD04E040F600014748FFF709FD83E082
:100F3000012905D141F200014348FFF72BFD04E0F0
:100F400041F200014048FFF7FBFC75E0012905D1A3
:100F500040F201013B48FFF71DFD04E040F20101B2
:100F60003848FFF7EDFC67E0012905D140F2004168
:100F70003648FFF70FFD04E040F200413348FFF729
:100F8000DFFC59E0012905D140F200212F48FFF78D
:100F900001FD04E040F200212C48FFF7D1FC4BE0BA
:100FA000012905D140F200112848FFF7F3FC04E0C5
:100FB00040F200112548FFF7C3FC3DE0012905D1AF
:100FC00040F240012248FFF7E5FC04E040F2400116
:100FD0001F48FFF7B5FC2FE0012905D140F2800141
:100FE0001B48FFF7D7FC04E040F280011848FFF7E8
:100FF000A7FC21E0012020E000283FF453AF0128A6
:101000003FF45EAF02283FF469AF03283FF474AFAA
:1010100004283FF47FAF05283FF48AAF06283FF449
:1010200095AF0728A0D00828ACD00928B8D00A2846
:10103000C4D00B28D0D0DDE70020DDF800E001B0FF
:10104000704700BF0008014000100140001401403B
:10105000000C014081B0CDF800E0094902B440F233
:10106000000340F2000240F20001FFF747FC01B02C
:10107000044A05490A600020DDF800E001B070472D
:101080007C160000AD0900001C000020014908602A
:10109000704700BFA481224201490860704700BF29
:1010A0009881224201490860704700BFAC0122428A
:1010B00001490860704700BFA80122420149086049
:1010C000704700BFB081224201490860704700BFED
:1010D000B081224201490860704700BFB00122423E
:1010E00001490860704700BF9C81214201490860A6
:1010F000704700BF9881214201490860704700BFD6
:10110000A081224201490860704700BFB881224295
:1011100001490860704700BF8C0122420149086004
:10112000704700BF9401214281B0CDF800E0FFF785
:10113000C7FC0120FFF7EEFC0120FFF7DFFC0020D9
:10114000FFF7D0FC00F094F8DDF800E001B0704744
:1011500081B0CDF800E0FFF7B3FC0020FFF7DAFC28
:101160000120FFF7CBFC0020FFF7BCFC00F080F86B
:10117000DDF800E001B0704781B0CDF800E0FFF786
:101180009FFC0020FFF7C6FC0020FFF7B7FC012002
:10119000FFF7A8FC00F06CF8DDF800E001B0704744
:1011A00081B0CDF800E05FFA81F95FFA82FA0FE0D2
:1011B0005FFA8AF15FFA89F0FFF770FE0DE05FFADF
:1011C0008AF15FFA89F0FFF76BFD06E0012004E089
:1011D0000028EDD00128F2D0F8E7DDF800E001B0FA
:1011E0007047FFFF81B0CDF800E0FFF769FC0120F8
:1011F000FFF790FC0020FFF781FC0120FFF772FC55
:1012000000F036F8DDF800E001B0704781B0CDF8AD
:1012100000E011E00846FFF727FD16E00846FFF75B
:1012200007FD12E00846FFF7E7FC0EE00846FFF76F
:1012300011FF0AE0012008E00028EBD00128EDD0E2
:101240002028EFD03028F1D0F4E7DDF800E001B03D
:101250007047FFFF81B0CDF800E0034C2468A04741
:10126000DDF800E001B070472C0000200204060801
:1012700044F67F77C0F212077F1EFDD100BF00BF8A
:1012800000BF00BF00BF704781B0CDF800E0034C45
:101290002468A047DDF800E001B07047240000207A
:1012A00083B0CDF800E0024610460D228DF80820EC
:1012B0000A228DF809201FE0FFF7E6FB23E0027801
:1012C0002AB10190FFF7E0FB0198401CF7E71AE014
:1012D00002782AB10190FFF7D7FB0198401CF7E78D
:1012E00002AA1046FFF7D0FB0DF109021046FFF7E6
:1012F000CBFB08E0062007E00029DDD00129DED085
:101300000229E5D0F6E70020DDF800E003B07047E1
:1013100081B0CDF800E0FFF79FFDDDF800E001B0FF
:101320007047FFFFFFFFFFFF81B0CDF800E0FFF740
:10133000ABFF1F49087018B11E480221FFF7B0FF2C
:10134000FFF71AFF45F2FF07C0F2252700BF00BFD5
:101350007F1EFDD100BF00BF00BFFFF743FF45F276
:10136000FF07C0F2252700BF00BF7F1EFDD100BFD1
:1013700000BF00BFFFF7ECFE45F2FF07C0F22527D4
:101380007F1EFDD100BF00BF00BF00BF00BFFFF741
:10139000CBFE45F2FF07C0F225277F1EFDD100BF1F
:1013A00000BF00BF00BF00BFDDF800E001B0704724
:1013B0001A0000200000002081B01548006840F0AD
:1013C0000101134801601349134801601048016886
:1013D000124801400E4801600D4801686FF48020FA
:1013E00001400B4801600C4801686FF4FE000140A9
:1013F00009480160064801686FF0A05001400448A8
:1014000001604FF000010648016001B0704700BF65
:10141000001002400000FFF004100240FFFFF6FE43
:101420002C100240FFFFFFFF81B0CDF800E0012249
:1014300007210020FFF7B4FE002200210020FFF763
:10144000AFFE002201210020FFF7AAFE00220221A8
:101450000020FFF7A5FE002206210020FFF7A0FED6
:1014600042F280512020FFF7D1FE44F67F77C0F290
:1014700012077F1EFDD100BF00BF00BF00BF00BF2D
:10148000DDF800E001B0704781B0CDF800E006481B
:10149000FFF73EFF0120FFF7DDFEFFF7E9FEDDF875
:1014A00000E001B0704700BFC017000081B04FF0EE
:1014B00000094FF0000CBDEB0A0F04DCBDEB0B0F75
:1014C00001DBD446EA464BF8049BBBEB0A0FFAD18A
:1014D000BCEB0A0F05DDE246D9F800B00BF1040BB6
:1014E000F1E701B07047FFFF81B01CF8019B0BF8DA
:1014F000019BBBEB0A0FF8D101B0704781B0FEE74A
:1015000001B0704781B002490248016001B07047E4
:10151000401901003400002000F00EF800F0D6F968
:10152000FFF7F0FF00F092F9FFF77EFFFFF7ACFF47
:10153000FFF7FAFEFCE7FEE781B0CDF800E0464A8F
:10154000464B474C47494BF68030814206D94648C6
:10155000006840F002014448016011E045F6C050C7
:10156000814206D94048006840F001013E480160D0
:1015700006E03D4801686FF0070001403A4801600D
:10158000FFF71AFF3948036039480460394802EA16
:1015900000013948016002F0010040B119463648A7
:1015A000006800F00200002800D1F8E700E01946CA
:1015B00002F4803040B10B462F48006800F4003040
:1015C000002800D1F8E700E00B4602F0805068B137
:1015D0002948006840F0805127480160264800688B
:1015E00000F00050002800D1F8E7FFE702F080602B
:1015F00078B12148006840F080611F4801601146C1
:101600001A461D48006800F00060002800D1F8E785
:1016100001E011461A4601F0807070B1164800686A
:1016200040F080711448016011461348006800F0D2
:10163000007000B9F9E70A46FFE70C48006800F0BF
:101640000C01900000F00C00814200D0F5E7DDF8BD
:1016500000E001B0704700BF8100010502841D0059
:10166000440601004019010000200240041002401D
:101670002C100240FFFF0F00001002403500000058
:1016800036000000FFFFFFFF000000000000000028
:10169000000000000000000000000000000000004A
:1016A000000000000000000000000000000000003A
:1016B00018080000180000000000000000000000F2
:1016C000000000000000000000000000000000001A
:1016D000000000000000000000000000000000000A
:1016E0000000000008000008380000003900000079
:1016F000FFFFFFFF000000000000000000000000EE
:1017000000000000000000000000000000000000D9
:1017100000000000000000000000000018080000A9
:1017200018000000000000000000000000000000A1
:1017300000000000000000000000000000000000A9
:101740000000000000000000000000000000000099
:1017500030001408090000000A000000FFFFFFFF2E
:101760000000000000000000000000000000000079
:101770000000000000000000000000000000000069
:101780000000000000000000180800001800000021
:101790000000000000000000000000000000000049
:1017A0000000000000000000000000000000000039
:1017B0000000000000000000000000000400000025
:1017C000ED0B0000B10B0000A50B0000990B000011
:1017D000BD0B0000E10B0000D50B0000C90B0000A1
:1017E0008D100000F9100000ED100000E110000065
:1017F000290A0000410A0000710A0000650A000081
:10180000590A00001D0A0000D5090000E109000086
:10181000C9090000050A0000110A0000ED090000D6
:10182000506F77657220676F6F64206F7574707585
:101830007420766F6C74616765000000000001021F
:1018400003040102030406070809FFFF00B5DFF8DF
:1018500014B0DFF814A0DFF814C0FFF745FE00BD98
:10186000704700BF000000201A0000202018000070
:10187000FFFFFFFFFFFFFFFFFFFFFFFFFFFFFFFF78
:10188000FFFFFFFFFFFFFFFFFFFFFFFFFFFFFFFF68
:10189000FFFFFFFFFFFFFFFFFFFFFFFFFFFFFFFF58
:1018A000FFFFFFFFFFFFFFFFFFFFFFFFFFFFFFFF48
:1018B000FFFFFFFFFFFFFFFFFFFFFFFFFFFFFFFF38
:1018C000FFFFFFFFFFFFFFFFFFFFFFFF00B5DFF898
:1018D00010B0DFF810A0FFF7E9FD00BD704700BFB2
:1018E0000000002048000020FFFFFFFFFFFFFFFF78
:00000001FF
